:100000000C94CA000C9400000C9400000C940000A6
:100010000C9400000C9400000C9400000C94000060
:100020000C9411010C9400000C9400000C9400003E
:100030000C9400000C9400000C9400000C94000040
:100040000C9400000C9400000C9400000C94000030
:100050000C940000F00014D74C4587252457040564
:1000600006A43CC42C2E3486D526BC66E6E40EEEEF
:10007000ACF4748510FBEFFF210005000E001A00A0
:1000800017001800200001001700180020000200CF
:1000900005001900000002001B001600000002000D
:1000A00005001900000003001B00160000000300FB
:1000B00005001900000004001B00160000000400E9
:1000C00005001900000005001B00160000000500D7
:1000D00005001900000006001B00160000000600C5
:1000E00005001900000007001B00160000000700B3
:1000F00005001900000008001B00160000000800A1
:1001000005001900000009001B001600000009008E
:1001100005001900010000001B001600010000008E
:1001200005001900010001001B001600010001007C
:1001300005001900010002001B001600010002006A
:1001400005001900010003001B0016000100030058
:1001500005001900010004001B0016000100040046
:1001600005001900010005001B0016000100050034
:1001700005001900010006001B0016000100060022
:10018000020002005400220060015600070198019D
:1001900078000000F894EE27ECBBF1E0FBBFEBBF6A
:1001A000E5BF8DE0A2E0BB27ED938A95E9F780E0FB
:1001B00094E0A0E6ED930197E9F7E0E8F1E085919E
:1001C0009591009761F0A591B59105901590BF01AB
:1001D000F00105900D920197E1F7FB01F0CFEFE5FB
:1001E000EDBFE4E0EEBFC0E6D1E00C94BD03EFEF5D
:1001F000EBBBE0E0E5BB97980895EFEFF0E02F014F
:10020000919B03C0E1E04E2A03C0EEEF4E2255243D
:10021000919903C0E2E04E2A03C0EDEF4E2255242F
:100220000895AA93BA93EA93FA93EFB7EA93E8E4AE
:10023000EDBDE5EEECBD689421F8B19901C031F84F
:10024000E8E02E26AAEBB2E0BED2A091BA02B091AD
:10025000BB02DC974CF0E0E0E093BA02E093BB0213
:10026000B19B02C0689431F8E991EFBFF991E9912F
:10027000B991A9911895BA93AA93EC81FD81309711
:1002800001F5A985AA2312F4A4D203C0B7D2BBD228
:10029000C1D2C5D2C9D2BED2CED2D2D2BBD2D7D28F
:1002A000AF81AA2312F4DAD203C0EDD2F1D2F7D291
:1002B000FBD2FFD2F4D204D308D3F1D2EE81FF8176
:1002C0001CC0AC81BD81119791F406D3AF81AA23E4
:1002D00012F4C4D203C0D7D2DBD2E1D2E5D2E9D244
:1002E000DED2EED2F2D2DBD2EE81FF8106C0AC814B
:1002F000BD81129731F4F0D22BD3E0939001F093AB
:100300009101AC81BD811397A1F4A985AA2312F4B0
:1003100060D203C073D277D27DD281D285D27AD215
:100320008AD28ED277D293D213D3E0939001F093F6
:1003300091012A960895BA93AA931A930A9357DFC4
:10034000EA81FB81A2E8B1E03BD30D911C91A0E6CC
:10035000B1E0A00FB11F0C911127E7E0F0E0E61922
:10036000F709AA81BB81EA17FB0751F422FE02C0FC
:1003700023FC01C003C0EFEFEBBB01C00BBB01C00E
:100380000BBBEA81FB81309711F4AD9A3DC0E1309F
:10039000A0E0FA0721F4AE9A20FEDA9835C0E230E8
:1003A000A0E0FA0711F4AF9A2FC0E330A0E0FA07FB
:1003B00061F430FE02C020FE01C005C023FC02C073
:1003C000DA9801C0DA9AAC9A1FC0E430A0E0FA07CC
:1003D00011F4AA9A19C0E530A0E0FA0719F4AB9A13
:1003E000DA9812C0E630A0E0FA0711F4A99A0CC01E
:1003F000E730A0E0FA0711F4A89A06C0E830A0E0C0
:10040000FA0711F44BBA979A198108812496089536
:1004100020FE03C0DAD2DFD20AC0BA92AA92EAD290
:10042000F0D2E4E9F1E0FA93EA93A6E9B1E023DF40
:100430000895ECD2E885F9854E175F0724F4F2D2CF
:100440004F5F5F4FF7CFF7D2AE81BF81EA0FFB1F3F
:10045000F7D2F1D2FAD200D32CF00F5F1F4F20E079
:1004600030E004D3E8D2DF01EC85FD85AE17BF078D
:100470000CF4E6D2E0D2DF01EA85FB85AE17BF07B8
:100480000CF0DED227C0C2D2E885F9854E175F078F
:1004900024F4C8D24F5F5F4FF7CFCDD2AE81BF817A
:1004A000EA1BFB0BCDD2C7D2D0D2D6D21CF02BE3A5
:1004B00030E0DCD2C0D2DF01EC85FD85AE17BF078E
:1004C0000CF4BED2B8D2DF01EA85FB85AE17BF07B8
:1004D0000CF0B6D20E94E1056096089520FE27C078
:1004E00066247724CBD20E94AD05D0010E94C105BD
:1004F0000024C014D00444F0E89420F8CC24DD2477
:100500006624772422F810C0B9D20E94AD05D0012C
:100510000E94C105F60131966F01E1E0F0E0EC15B3
:10052000FD0514F4CC24DD2450D255D2A4DE089568
:1005300020FE10C0F601309719F4E0EAF2E006C0A0
:10054000E130A0E0FA0731F4E2EAF2E0FA93EA934C
:10055000A1D26FDF089520FE10C0F601309719F484
:10056000E0EAF2E006C0E130A0E0FA0731F4E2EAA6
:10057000F2E0FA93EA938ED286DF089520FE0CC053
:1005800022FE03C0F30131963F01E3E0F0E0E615FF
:10059000F70514F4662477240895839A869A859A39
:1005A000849AA4EBB2E00FD1A091B402B091B5024D
:1005B000A436E0E0BE078CF1E0E0E093B402E09303
:1005C000B502849902C024FC01C002C087DF6CD24E
:1005D000859902C025FC01C002C0AADF65D28699B8
:1005E00002C026FC01C002C0B6DF5ED2839902C001
:1005F00027FC01C002C0C2DF57D2E89484996894F6
:1006000024F8E8948599689425F8E8948699689484
:1006100026F8E8948399689427F80895849926C069
:10062000A8EBB2E0D0D0A091B802B091B902A8383E
:10063000E3E1BE07D4F0E0E0E093B802E093B90252
:1006400020FC13C037D2DDD1D5D1E1E0F0E0FA9340
:10065000EA93E8E9F1E0FA93EA93A4E9B1E00BDE6A
:10066000689420F86624772422F805C0E0E0E0933F
:10067000B802E093B9020895839902C020FE01C038
:1006800018C0ACEBB2E09FD0A091BC02B091BD020B
:10069000139774F0689430F8AA24BB24E0E0E09348
:1006A000BA02E093BB02B09B02C0919801C0919A3C
:1006B00005C0E0E0E093BC02E093BD02089530FE87
:1006C0001FC0B09B02C0919801C0919AEAE0F0E08F
:1006D000FA93EA9396D1E7EEF6E2FA93EA93A0E072
:1006E000B0E0A7DEE091A002F091A102AE16BF0635
:1006F0003CF0B09B02C0919A01C09198E89430F808
:100700000895D8D1A2E0B0E00E94B105E093A20222
:10071000F093A3020895EFEFEABBEBBBE0E0E7BB89
:10072000EFEFE8BBE4BBE0E0E5BBE7E8E1BBEFE708
:10073000E2BBE0E0E3BFE2BFECBFEFBDE4E0EEBD53
:10074000E8E4EDBDE5EEECBDE0E0E7BDE6BDEBBD08
:10075000EABDE9BDE8BDE2BDE5BDE4BDE3BDE4E061
:10076000E9BFE0E0E5BFE4BFEAB9E0E8E8B9E0E00E
:10077000E0BFE6B9EDB9E6BF0895CDDFC2DF7894FA
:10078000689430F8B09B02C0919801C0919A21FE04
:1007900003C0E89421F870DF31FE03C0E89431F81B
:1007A0008EDF36DE3BDFD401C6DDF40131964F012A
:1007B00024DDE9E0F0E08E169F0618F088249924E5
:1007C000ECDEE5CFFFCFED91FD913196FE93EE93F8
:1007D0000895E885F9850E946305E887F987A8856B
:1007E000B985E8EEF3E00E949105E887F987EFE12B
:1007F000F0E0E0938201F09383010895A885B98524
:10080000E8EEF3E008950E948C05E0938201F093F6
:100810008301F4CF0E949105E887F9870895A885A0
:10082000B985E4E6F0E008950E948C05E093840128
:10083000F0938501F4CFA885B985EAE0F0E008954A
:100840000E948C05E0938601F0938701F4CFE88540
:10085000F985E0938801F09389010895EE81FF8185
:100860000E946305EE83FF83AE81BF81E8EEF3E073
:100870000E949105EE83FF83EAE8F1E0AFE1B0E08A
:10088000A083B1830895AE81BF81E8EEF3E00895BF
:100890000E948C05E0938A01F0938B01F4CF0E94B3
:1008A0009105EE83FF830895AE81BF81E4E6F0E019
:1008B00008950E948C05E0938C01F0938D01F4CF94
:1008C000AE81BF81EAE0F0E008950E948C05E093DC
:1008D0008E01F0938F01F4CFE885F9850E946705BA
:1008E000AA81BB81EE0FFF1FEA0FFB1FEA83FB8388
:1008F000AA81BB810E94AD05E0938201F093830140
:10090000EA81FB813296EA83FB83AA81BB810E9444
:10091000AD05E0938401F0938501EA81FB81329675
:10092000EA83FB83AA81BB810E94AD05E093860127
:10093000F0938701EA81FB813296EA83FB83AA81E7
:10094000BB810E94AD05E0938801F0938901089571
:10095000EE81FF810E946705A881B981EE0FFF1F1C
:10096000EA0FFB1FE883F983A881B9810E94AD05D6
:10097000E0938A01F0938B01E881F9813296E88354
:10098000F983A881B9810E94AD05E0938C01F093B1
:100990008D01E881F9813296E883F983A881B981D4
:1009A0000E94AD05E0938E01F0938F01E881F981FB
:1009B0003296E883F983A881B9810E94AD05089534
:1009C000EE0FFF1FAE0FBF1F0895DA92CA92F60115
:1009D000A0EAB2E0F5CF0E94AD05FA93EA93E1E018
:1009E000F0E0FA93EA93E8E9F1E0FA93EA93A4E9F4
:1009F000B1E00895E091A002F091A102FA93EA9388
:100A00000895E0E0F0E0FA93EA930895BA93AA9388
:100A10002297E1E0E883E0E0E9830E94DA0540E024
:100A200050E00895EE81FF81AAE0B0E00E947405D5
:100A3000EE83FF830895AE85BF850E94AD050895BE
:100A4000AE85BF85ED93FC930895DF01E4E6F0E009
:100A50000E948C058F01EFCFDF01E4E6F0E00E94F9
:100A600091059F012C33E0E03E070895F801A4E6CC
:100A7000B0E00E947405E20FF31FE2CFF601A0E0A0
:100A8000B0E0EE0FFF1FEA0FFB1F0F01F601A0EA17
:100A9000B2E096CFE1E0F0E0FA93EA93E7EEF6E217
:100AA000FA93EA93D3010895E0E0E093B602E0936D
:100AB000B7020895A0E0B0E00E94B105E093A00263
:100AC000F093A1020895F195E195F0400895EE0F9D
:100AD000FF1FEE0FFF1F0895FA9FF02DEB9FF00D03
:100AE000EA9FE02DF10D08952AD0F6DF0EF4EBDF3A
:100AF00008950024112490E1AA0FBB1F001C111CB3
:100B00000E1A1F0A18F40E0E1F1E01C0A1609A953E
:100B100099F7FD01D001089512D0EBDF0EF4D3DF79
:100B20000895E894B7FF04C0A095B0951196689415
:100B3000F7FDC9DFDEDFFD010EF4C5DF0895E8949F
:100B4000F7FF02C0C0DF6894B7FF06C0A095B0955C
:100B5000119600F8039400FA0895ED91FC91119715
:100B60000895119602D0FE2F1197E199FECFFF93C1
:100B7000FFB7F894AEBBBFBBE09AEDB3FFBFFF91E8
:100B8000089507D01196EF93EF2F03D0EF911197AF
:100B90000895E19B02C0A895FCCF9FB7F894AEBB27
:100BA000BFBBE09A8DB3E81719F0EDBBE29AE19A6A
:100BB0009FBF08955A934A933A932A931A930A939C
:100BC00008955D814C813B812A81198108810895B6
:00000001FF
